{
  "_format": "hh-sol-artifact-1",
  "contractName": "videoNFTMiner",
  "sourceName": "contracts/video_NFT.sol",
  "abi": [
    {
      "inputs": [],
      "stateMutability": "nonpayable",
      "type": "constructor"
    },
    {
      "anonymous": false,
      "inputs": [
        {
          "indexed": true,
          "internalType": "address",
          "name": "owner",
          "type": "address"
        },
        {
          "indexed": true,
          "internalType": "address",
          "name": "approved",
          "type": "address"
        },
        {
          "indexed": true,
          "internalType": "uint256",
          "name": "tokenId",
          "type": "uint256"
        }
      ],
      "name": "Approval",
      "type": "event"
    },
    {
      "anonymous": false,
      "inputs": [
        {
          "indexed": true,
          "internalType": "address",
          "name": "owner",
          "type": "address"
        },
        {
          "indexed": true,
          "internalType": "address",
          "name": "operator",
          "type": "address"
        },
        {
          "indexed": false,
          "internalType": "bool",
          "name": "approved",
          "type": "bool"
        }
      ],
      "name": "ApprovalForAll",
      "type": "event"
    },
    {
      "anonymous": false,
      "inputs": [
        {
          "indexed": false,
          "internalType": "uint256",
          "name": "_fromTokenId",
          "type": "uint256"
        },
        {
          "indexed": false,
          "internalType": "uint256",
          "name": "_toTokenId",
          "type": "uint256"
        }
      ],
      "name": "BatchMetadataUpdate",
      "type": "event"
    },
    {
      "anonymous": false,
      "inputs": [
        {
          "indexed": false,
          "internalType": "uint256",
          "name": "_tokenId",
          "type": "uint256"
        }
      ],
      "name": "MetadataUpdate",
      "type": "event"
    },
    {
      "anonymous": false,
      "inputs": [
        {
          "indexed": true,
          "internalType": "address",
          "name": "from",
          "type": "address"
        },
        {
          "indexed": true,
          "internalType": "address",
          "name": "to",
          "type": "address"
        },
        {
          "indexed": true,
          "internalType": "uint256",
          "name": "tokenId",
          "type": "uint256"
        }
      ],
      "name": "Transfer",
      "type": "event"
    },
    {
      "inputs": [
        {
          "internalType": "address",
          "name": "to",
          "type": "address"
        },
        {
          "internalType": "uint256",
          "name": "tokenId",
          "type": "uint256"
        }
      ],
      "name": "approve",
      "outputs": [],
      "stateMutability": "nonpayable",
      "type": "function"
    },
    {
      "inputs": [
        {
          "internalType": "address",
          "name": "owner",
          "type": "address"
        }
      ],
      "name": "balanceOf",
      "outputs": [
        {
          "internalType": "uint256",
          "name": "",
          "type": "uint256"
        }
      ],
      "stateMutability": "view",
      "type": "function"
    },
    {
      "inputs": [
        {
          "internalType": "address",
          "name": "_from",
          "type": "address"
        },
        {
          "internalType": "address",
          "name": "_to",
          "type": "address"
        },
        {
          "internalType": "uint256",
          "name": "tokenId",
          "type": "uint256"
        }
      ],
      "name": "change_owner",
      "outputs": [],
      "stateMutability": "nonpayable",
      "type": "function"
    },
    {
      "inputs": [
        {
          "internalType": "uint256",
          "name": "tokenId",
          "type": "uint256"
        }
      ],
      "name": "getApproved",
      "outputs": [
        {
          "internalType": "address",
          "name": "",
          "type": "address"
        }
      ],
      "stateMutability": "view",
      "type": "function"
    },
    {
      "inputs": [],
      "name": "getTokenCounter",
      "outputs": [
        {
          "internalType": "uint256",
          "name": "",
          "type": "uint256"
        }
      ],
      "stateMutability": "view",
      "type": "function"
    },
    {
      "inputs": [
        {
          "internalType": "address",
          "name": "owner",
          "type": "address"
        },
        {
          "internalType": "address",
          "name": "operator",
          "type": "address"
        }
      ],
      "name": "isApprovedForAll",
      "outputs": [
        {
          "internalType": "bool",
          "name": "",
          "type": "bool"
        }
      ],
      "stateMutability": "view",
      "type": "function"
    },
    {
      "inputs": [
        {
          "internalType": "string",
          "name": "URI",
          "type": "string"
        }
      ],
      "name": "mintNft",
      "outputs": [
        {
          "internalType": "uint256",
          "name": "",
          "type": "uint256"
        }
      ],
      "stateMutability": "nonpayable",
      "type": "function"
    },
    {
      "inputs": [],
      "name": "name",
      "outputs": [
        {
          "internalType": "string",
          "name": "",
          "type": "string"
        }
      ],
      "stateMutability": "view",
      "type": "function"
    },
    {
      "inputs": [
        {
          "internalType": "uint256",
          "name": "tokenId",
          "type": "uint256"
        }
      ],
      "name": "ownerOf",
      "outputs": [
        {
          "internalType": "address",
          "name": "",
          "type": "address"
        }
      ],
      "stateMutability": "view",
      "type": "function"
    },
    {
      "inputs": [
        {
          "internalType": "address",
          "name": "from",
          "type": "address"
        },
        {
          "internalType": "address",
          "name": "to",
          "type": "address"
        },
        {
          "internalType": "uint256",
          "name": "tokenId",
          "type": "uint256"
        }
      ],
      "name": "safeTransferFrom",
      "outputs": [],
      "stateMutability": "nonpayable",
      "type": "function"
    },
    {
      "inputs": [
        {
          "internalType": "address",
          "name": "from",
          "type": "address"
        },
        {
          "internalType": "address",
          "name": "to",
          "type": "address"
        },
        {
          "internalType": "uint256",
          "name": "tokenId",
          "type": "uint256"
        },
        {
          "internalType": "bytes",
          "name": "data",
          "type": "bytes"
        }
      ],
      "name": "safeTransferFrom",
      "outputs": [],
      "stateMutability": "nonpayable",
      "type": "function"
    },
    {
      "inputs": [
        {
          "internalType": "address",
          "name": "operator",
          "type": "address"
        },
        {
          "internalType": "bool",
          "name": "approved",
          "type": "bool"
        }
      ],
      "name": "setApprovalForAll",
      "outputs": [],
      "stateMutability": "nonpayable",
      "type": "function"
    },
    {
      "inputs": [
        {
          "internalType": "bytes4",
          "name": "interfaceId",
          "type": "bytes4"
        }
      ],
      "name": "supportsInterface",
      "outputs": [
        {
          "internalType": "bool",
          "name": "",
          "type": "bool"
        }
      ],
      "stateMutability": "view",
      "type": "function"
    },
    {
      "inputs": [],
      "name": "symbol",
      "outputs": [
        {
          "internalType": "string",
          "name": "",
          "type": "string"
        }
      ],
      "stateMutability": "view",
      "type": "function"
    },
    {
      "inputs": [
        {
          "internalType": "uint256",
          "name": "tokenId",
          "type": "uint256"
        }
      ],
      "name": "tokenURI",
      "outputs": [
        {
          "internalType": "string",
          "name": "",
          "type": "string"
        }
      ],
      "stateMutability": "view",
      "type": "function"
    },
    {
      "inputs": [
        {
          "internalType": "address",
          "name": "from",
          "type": "address"
        },
        {
          "internalType": "address",
          "name": "to",
          "type": "address"
        },
        {
          "internalType": "uint256",
          "name": "tokenId",
          "type": "uint256"
        }
      ],
      "name": "transferFrom",
      "outputs": [],
      "stateMutability": "nonpayable",
      "type": "function"
    }
  ],
  "bytecode": "0x60a06040523480156200001157600080fd5b506040518060400160405280600881526020017f4368696e676172690000000000000000000000000000000000000000000000008152506040518060400160405280600381526020017f434847000000000000000000000000000000000000000000000000000000000081525081600090816200008f919062000360565b508060019081620000a1919062000360565b5050503373ffffffffffffffffffffffffffffffffffffffff1660808173ffffffffffffffffffffffffffffffffffffffff1681525050600060078190555062000447565b600081519050919050565b7f4e487b7100000000000000000000000000000000000000000000000000000000600052604160045260246000fd5b7f4e487b7100000000000000000000000000000000000000000000000000000000600052602260045260246000fd5b600060028204905060018216806200016857607f821691505b6020821081036200017e576200017d62000120565b5b50919050565b60008190508160005260206000209050919050565b60006020601f8301049050919050565b600082821b905092915050565b600060088302620001e87fffffffffffffffffffffffffffffffffffffffffffffffffffffffffffffffff82620001a9565b620001f48683620001a9565b95508019841693508086168417925050509392505050565b6000819050919050565b6000819050919050565b6000620002416200023b62000235846200020c565b62000216565b6200020c565b9050919050565b6000819050919050565b6200025d8362000220565b620002756200026c8262000248565b848454620001b6565b825550505050565b600090565b6200028c6200027d565b6200029981848462000252565b505050565b5b81811015620002c157620002b560008262000282565b6001810190506200029f565b5050565b601f8211156200031057620002da8162000184565b620002e58462000199565b81016020851015620002f5578190505b6200030d620003048562000199565b8301826200029e565b50505b505050565b600082821c905092915050565b6000620003356000198460080262000315565b1980831691505092915050565b600062000350838362000322565b9150826002028217905092915050565b6200036b82620000e6565b67ffffffffffffffff811115620003875762000386620000f1565b5b6200039382546200014f565b620003a0828285620002c5565b600060209050601f831160018114620003d85760008415620003c3578287015190505b620003cf858262000342565b8655506200043f565b601f198416620003e88662000184565b60005b828110156200041257848901518255600182019150602085019450602081019050620003eb565b868310156200043257848901516200042e601f89168262000322565b8355505b6001600288020188555050505b505050505050565b608051612ce06200046060003960005050612ce06000f3fe608060405234801561001057600080fd5b50600436106101005760003560e01c806370a0823111610097578063c87b56dd11610066578063c87b56dd146102ab578063da86f4a9146102db578063e39239091461030b578063e985e9c51461032757610100565b806370a082311461022557806395d89b4114610255578063a22cb46514610273578063b88d4fde1461028f57610100565b806323b872dd116100d357806323b872dd1461019f57806342842e0e146101bb5780636352211e146101d75780636e02007d1461020757610100565b806301ffc9a71461010557806306fdde0314610135578063081812fc14610153578063095ea7b314610183575b600080fd5b61011f600480360381019061011a9190611b50565b610357565b60405161012c9190611b98565b60405180910390f35b61013d6103b8565b60405161014a9190611c43565b60405180910390f35b61016d60048036038101906101689190611c9b565b61044a565b60405161017a9190611d09565b60405180910390f35b61019d60048036038101906101989190611d50565b610490565b005b6101b960048036038101906101b49190611d90565b6105a7565b005b6101d560048036038101906101d09190611d90565b610607565b005b6101f160048036038101906101ec9190611c9b565b610627565b6040516101fe9190611d09565b60405180910390f35b61020f6106ad565b60405161021c9190611df2565b60405180910390f35b61023f600480360381019061023a9190611e0d565b6106b7565b60405161024c9190611df2565b60405180910390f35b61025d61076e565b60405161026a9190611c43565b60405180910390f35b61028d60048036038101906102889190611e66565b610800565b005b6102a960048036038101906102a49190611fdb565b610816565b005b6102c560048036038101906102c09190611c9b565b610878565b6040516102d29190611c43565b60405180910390f35b6102f560048036038101906102f091906120be565b61098a565b6040516103029190611df2565b60405180910390f35b61032560048036038101906103209190611d90565b610a08565b005b610341600480360381019061033c919061210b565b610a94565b60405161034e9190611b98565b60405180910390f35b6000634906490660e01b7bffffffffffffffffffffffffffffffffffffffffffffffffffffffff1916827bffffffffffffffffffffffffffffffffffffffffffffffffffffffff191614806103b157506103b082610b28565b5b9050919050565b6060600080546103c79061217a565b80601f01602080910402602001604051908101604052809291908181526020018280546103f39061217a565b80156104405780601f1061041557610100808354040283529160200191610440565b820191906000526020600020905b81548152906001019060200180831161042357829003601f168201915b5050505050905090565b600061045582610c0a565b6004600083815260200190815260200160002060009054906101000a900473ffffffffffffffffffffffffffffffffffffffff169050919050565b600061049b82610627565b90508073ffffffffffffffffffffffffffffffffffffffff168373ffffffffffffffffffffffffffffffffffffffff160361050b576040517f08c379a00000000000000000000000000000000000000000000000000000000081526004016105029061221d565b60405180910390fd5b8073ffffffffffffffffffffffffffffffffffffffff1661052a610c55565b73ffffffffffffffffffffffffffffffffffffffff161480610559575061055881610553610c55565b610a94565b5b610598576040517f08c379a000000000000000000000000000000000000000000000000000000000815260040161058f906122af565b60405180910390fd5b6105a28383610c5d565b505050565b6105b86105b2610c55565b82610d16565b6105f7576040517f08c379a00000000000000000000000000000000000000000000000000000000081526004016105ee90612341565b60405180910390fd5b610602838383610dab565b505050565b61062283838360405180602001604052806000815250610816565b505050565b600080610633836110a4565b9050600073ffffffffffffffffffffffffffffffffffffffff168173ffffffffffffffffffffffffffffffffffffffff16036106a4576040517f08c379a000000000000000000000000000000000000000000000000000000000815260040161069b906123ad565b60405180910390fd5b80915050919050565b6000600754905090565b60008073ffffffffffffffffffffffffffffffffffffffff168273ffffffffffffffffffffffffffffffffffffffff1603610727576040517f08c379a000000000000000000000000000000000000000000000000000000000815260040161071e9061243f565b60405180910390fd5b600360008373ffffffffffffffffffffffffffffffffffffffff1673ffffffffffffffffffffffffffffffffffffffff168152602001908152602001600020549050919050565b60606001805461077d9061217a565b80601f01602080910402602001604051908101604052809291908181526020018280546107a99061217a565b80156107f65780601f106107cb576101008083540402835291602001916107f6565b820191906000526020600020905b8154815290600101906020018083116107d957829003601f168201915b5050505050905090565b61081261080b610c55565b83836110e1565b5050565b610827610821610c55565b83610d16565b610866576040517f08c379a000000000000000000000000000000000000000000000000000000000815260040161085d90612341565b60405180910390fd5b6108728484848461124d565b50505050565b606061088382610c0a565b60006006600084815260200190815260200160002080546108a39061217a565b80601f01602080910402602001604051908101604052809291908181526020018280546108cf9061217a565b801561091c5780601f106108f15761010080835404028352916020019161091c565b820191906000526020600020905b8154815290600101906020018083116108ff57829003601f168201915b50505050509050600061092d6112a9565b90506000815103610942578192505050610985565b60008251111561097757808260405160200161095f92919061249b565b60405160208183030381529060405292505050610985565b610980846112c0565b925050505b919050565b600061099833600754611328565b6109e860075484848080601f016020809104026020016040519081016040528093929190818152602001838380828437600081840152601f19601f82011690508083019250505050505050611346565b60016007546109f791906124ee565b600781905550600754905092915050565b6000610a1382610627565b90508373ffffffffffffffffffffffffffffffffffffffff168173ffffffffffffffffffffffffffffffffffffffff1614610a83576040517f08c379a0000000000000000000000000000000000000000000000000000000008152600401610a7a9061256e565b60405180910390fd5b610a8e848484610607565b50505050565b6000600560008473ffffffffffffffffffffffffffffffffffffffff1673ffffffffffffffffffffffffffffffffffffffff16815260200190815260200160002060008373ffffffffffffffffffffffffffffffffffffffff1673ffffffffffffffffffffffffffffffffffffffff16815260200190815260200160002060009054906101000a900460ff16905092915050565b60007f80ac58cd000000000000000000000000000000000000000000000000000000007bffffffffffffffffffffffffffffffffffffffffffffffffffffffff1916827bffffffffffffffffffffffffffffffffffffffffffffffffffffffff19161480610bf357507f5b5e139f000000000000000000000000000000000000000000000000000000007bffffffffffffffffffffffffffffffffffffffffffffffffffffffff1916827bffffffffffffffffffffffffffffffffffffffffffffffffffffffff1916145b80610c035750610c02826113ea565b5b9050919050565b610c1381611454565b610c52576040517f08c379a0000000000000000000000000000000000000000000000000000000008152600401610c49906123ad565b60405180910390fd5b50565b600033905090565b816004600083815260200190815260200160002060006101000a81548173ffffffffffffffffffffffffffffffffffffffff021916908373ffffffffffffffffffffffffffffffffffffffff160217905550808273ffffffffffffffffffffffffffffffffffffffff16610cd083610627565b73ffffffffffffffffffffffffffffffffffffffff167f8c5be1e5ebec7d5bd14f71427d1e84f3dd0314c0f7b2291e5b200ac8c7c3b92560405160405180910390a45050565b600080610d2283610627565b90508073ffffffffffffffffffffffffffffffffffffffff168473ffffffffffffffffffffffffffffffffffffffff161480610d645750610d638185610a94565b5b80610da257508373ffffffffffffffffffffffffffffffffffffffff16610d8a8461044a565b73ffffffffffffffffffffffffffffffffffffffff16145b91505092915050565b8273ffffffffffffffffffffffffffffffffffffffff16610dcb82610627565b73ffffffffffffffffffffffffffffffffffffffff1614610e21576040517f08c379a0000000000000000000000000000000000000000000000000000000008152600401610e1890612600565b60405180910390fd5b600073ffffffffffffffffffffffffffffffffffffffff168273ffffffffffffffffffffffffffffffffffffffff1603610e90576040517f08c379a0000000000000000000000000000000000000000000000000000000008152600401610e8790612692565b60405180910390fd5b610e9d8383836001611495565b8273ffffffffffffffffffffffffffffffffffffffff16610ebd82610627565b73ffffffffffffffffffffffffffffffffffffffff1614610f13576040517f08c379a0000000000000000000000000000000000000000000000000000000008152600401610f0a90612600565b60405180910390fd5b6004600082815260200190815260200160002060006101000a81549073ffffffffffffffffffffffffffffffffffffffff02191690556001600360008573ffffffffffffffffffffffffffffffffffffffff1673ffffffffffffffffffffffffffffffffffffffff168152602001908152602001600020600082825403925050819055506001600360008473ffffffffffffffffffffffffffffffffffffffff1673ffffffffffffffffffffffffffffffffffffffff16815260200190815260200160002060008282540192505081905550816002600083815260200190815260200160002060006101000a81548173ffffffffffffffffffffffffffffffffffffffff021916908373ffffffffffffffffffffffffffffffffffffffff160217905550808273ffffffffffffffffffffffffffffffffffffffff168473ffffffffffffffffffffffffffffffffffffffff167fddf252ad1be2c89b69c2b068fc378daa952ba7f163c4a11628f55a4df523b3ef60405160405180910390a461109f838383600161149b565b505050565b60006002600083815260200190815260200160002060009054906101000a900473ffffffffffffffffffffffffffffffffffffffff169050919050565b8173ffffffffffffffffffffffffffffffffffffffff168373ffffffffffffffffffffffffffffffffffffffff160361114f576040517f08c379a0000000000000000000000000000000000000000000000000000000008152600401611146906126fe565b60405180910390fd5b80600560008573ffffffffffffffffffffffffffffffffffffffff1673ffffffffffffffffffffffffffffffffffffffff16815260200190815260200160002060008473ffffffffffffffffffffffffffffffffffffffff1673ffffffffffffffffffffffffffffffffffffffff16815260200190815260200160002060006101000a81548160ff0219169083151502179055508173ffffffffffffffffffffffffffffffffffffffff168373ffffffffffffffffffffffffffffffffffffffff167f17307eab39ab6107e8899845ad3d59bd9653f200f220920489ca2b5937696c31836040516112409190611b98565b60405180910390a3505050565b611258848484610dab565b611264848484846114a1565b6112a3576040517f08c379a000000000000000000000000000000000000000000000000000000000815260040161129a90612790565b60405180910390fd5b50505050565b606060405180602001604052806000815250905090565b60606112cb82610c0a565b60006112d56112a9565b905060008151116112f55760405180602001604052806000815250611320565b806112ff84611628565b60405160200161131092919061249b565b6040516020818303038152906040525b915050919050565b6113428282604051806020016040528060008152506116f6565b5050565b61134f82611454565b61138e576040517f08c379a000000000000000000000000000000000000000000000000000000000815260040161138590612822565b60405180910390fd5b806006600084815260200190815260200160002090816113ae91906129ee565b507ff8e1a15aba9398e019f0b49df1a4fde98ee17ae345cb5f6b5e2c27f5033e8ce7826040516113de9190611df2565b60405180910390a15050565b60007f01ffc9a7000000000000000000000000000000000000000000000000000000007bffffffffffffffffffffffffffffffffffffffffffffffffffffffff1916827bffffffffffffffffffffffffffffffffffffffffffffffffffffffff1916149050919050565b60008073ffffffffffffffffffffffffffffffffffffffff16611476836110a4565b73ffffffffffffffffffffffffffffffffffffffff1614159050919050565b50505050565b50505050565b60006114c28473ffffffffffffffffffffffffffffffffffffffff16611751565b1561161b578373ffffffffffffffffffffffffffffffffffffffff1663150b7a026114eb610c55565b8786866040518563ffffffff1660e01b815260040161150d9493929190612b15565b6020604051808303816000875af192505050801561154957506040513d601f19601f820116820180604052508101906115469190612b76565b60015b6115cb573d8060008114611579576040519150601f19603f3d011682016040523d82523d6000602084013e61157e565b606091505b5060008151036115c3576040517f08c379a00000000000000000000000000000000000000000000000000000000081526004016115ba90612790565b60405180910390fd5b805181602001fd5b63150b7a0260e01b7bffffffffffffffffffffffffffffffffffffffffffffffffffffffff1916817bffffffffffffffffffffffffffffffffffffffffffffffffffffffff191614915050611620565b600190505b949350505050565b60606000600161163784611774565b01905060008167ffffffffffffffff81111561165657611655611eb0565b5b6040519080825280601f01601f1916602001820160405280156116885781602001600182028036833780820191505090505b509050600082602001820190505b6001156116eb578080600190039150507f3031323334353637383961626364656600000000000000000000000000000000600a86061a8153600a85816116df576116de612ba3565b5b04945060008503611696575b819350505050919050565b61170083836118c7565b61170d60008484846114a1565b61174c576040517f08c379a000000000000000000000000000000000000000000000000000000000815260040161174390612790565b60405180910390fd5b505050565b6000808273ffffffffffffffffffffffffffffffffffffffff163b119050919050565b600080600090507a184f03e93ff9f4daa797ed6e38ed64bf6a1f01000000000000000083106117d2577a184f03e93ff9f4daa797ed6e38ed64bf6a1f01000000000000000083816117c8576117c7612ba3565b5b0492506040810190505b6d04ee2d6d415b85acef8100000000831061180f576d04ee2d6d415b85acef8100000000838161180557611804612ba3565b5b0492506020810190505b662386f26fc10000831061183e57662386f26fc10000838161183457611833612ba3565b5b0492506010810190505b6305f5e1008310611867576305f5e100838161185d5761185c612ba3565b5b0492506008810190505b612710831061188c57612710838161188257611881612ba3565b5b0492506004810190505b606483106118af57606483816118a5576118a4612ba3565b5b0492506002810190505b600a83106118be576001810190505b80915050919050565b600073ffffffffffffffffffffffffffffffffffffffff168273ffffffffffffffffffffffffffffffffffffffff1603611936576040517f08c379a000000000000000000000000000000000000000000000000000000000815260040161192d90612c1e565b60405180910390fd5b61193f81611454565b1561197f576040517f08c379a000000000000000000000000000000000000000000000000000000000815260040161197690612c8a565b60405180910390fd5b61198d600083836001611495565b61199681611454565b156119d6576040517f08c379a00000000000000000000000000000000000000000000000000000000081526004016119cd90612c8a565b60405180910390fd5b6001600360008473ffffffffffffffffffffffffffffffffffffffff1673ffffffffffffffffffffffffffffffffffffffff16815260200190815260200160002060008282540192505081905550816002600083815260200190815260200160002060006101000a81548173ffffffffffffffffffffffffffffffffffffffff021916908373ffffffffffffffffffffffffffffffffffffffff160217905550808273ffffffffffffffffffffffffffffffffffffffff16600073ffffffffffffffffffffffffffffffffffffffff167fddf252ad1be2c89b69c2b068fc378daa952ba7f163c4a11628f55a4df523b3ef60405160405180910390a4611ae060008383600161149b565b5050565b6000604051905090565b600080fd5b600080fd5b60007fffffffff0000000000000000000000000000000000000000000000000000000082169050919050565b611b2d81611af8565b8114611b3857600080fd5b50565b600081359050611b4a81611b24565b92915050565b600060208284031215611b6657611b65611aee565b5b6000611b7484828501611b3b565b91505092915050565b60008115159050919050565b611b9281611b7d565b82525050565b6000602082019050611bad6000830184611b89565b92915050565b600081519050919050565b600082825260208201905092915050565b60005b83811015611bed578082015181840152602081019050611bd2565b60008484015250505050565b6000601f19601f8301169050919050565b6000611c1582611bb3565b611c1f8185611bbe565b9350611c2f818560208601611bcf565b611c3881611bf9565b840191505092915050565b60006020820190508181036000830152611c5d8184611c0a565b905092915050565b6000819050919050565b611c7881611c65565b8114611c8357600080fd5b50565b600081359050611c9581611c6f565b92915050565b600060208284031215611cb157611cb0611aee565b5b6000611cbf84828501611c86565b91505092915050565b600073ffffffffffffffffffffffffffffffffffffffff82169050919050565b6000611cf382611cc8565b9050919050565b611d0381611ce8565b82525050565b6000602082019050611d1e6000830184611cfa565b92915050565b611d2d81611ce8565b8114611d3857600080fd5b50565b600081359050611d4a81611d24565b92915050565b60008060408385031215611d6757611d66611aee565b5b6000611d7585828601611d3b565b9250506020611d8685828601611c86565b9150509250929050565b600080600060608486031215611da957611da8611aee565b5b6000611db786828701611d3b565b9350506020611dc886828701611d3b565b9250506040611dd986828701611c86565b9150509250925092565b611dec81611c65565b82525050565b6000602082019050611e076000830184611de3565b92915050565b600060208284031215611e2357611e22611aee565b5b6000611e3184828501611d3b565b91505092915050565b611e4381611b7d565b8114611e4e57600080fd5b50565b600081359050611e6081611e3a565b92915050565b60008060408385031215611e7d57611e7c611aee565b5b6000611e8b85828601611d3b565b9250506020611e9c85828601611e51565b9150509250929050565b600080fd5b600080fd5b7f4e487b7100000000000000000000000000000000000000000000000000000000600052604160045260246000fd5b611ee882611bf9565b810181811067ffffffffffffffff82111715611f0757611f06611eb0565b5b80604052505050565b6000611f1a611ae4565b9050611f268282611edf565b919050565b600067ffffffffffffffff821115611f4657611f45611eb0565b5b611f4f82611bf9565b9050602081019050919050565b82818337600083830152505050565b6000611f7e611f7984611f2b565b611f10565b905082815260208101848484011115611f9a57611f99611eab565b5b611fa5848285611f5c565b509392505050565b600082601f830112611fc257611fc1611ea6565b5b8135611fd2848260208601611f6b565b91505092915050565b60008060008060808587031215611ff557611ff4611aee565b5b600061200387828801611d3b565b945050602061201487828801611d3b565b935050604061202587828801611c86565b925050606085013567ffffffffffffffff81111561204657612045611af3565b5b61205287828801611fad565b91505092959194509250565b600080fd5b600080fd5b60008083601f84011261207e5761207d611ea6565b5b8235905067ffffffffffffffff81111561209b5761209a61205e565b5b6020830191508360018202830111156120b7576120b6612063565b5b9250929050565b600080602083850312156120d5576120d4611aee565b5b600083013567ffffffffffffffff8111156120f3576120f2611af3565b5b6120ff85828601612068565b92509250509250929050565b6000806040838503121561212257612121611aee565b5b600061213085828601611d3b565b925050602061214185828601611d3b565b9150509250929050565b7f4e487b7100000000000000000000000000000000000000000000000000000000600052602260045260246000fd5b6000600282049050600182168061219257607f821691505b6020821081036121a5576121a461214b565b5b50919050565b7f4552433732313a20617070726f76616c20746f2063757272656e74206f776e6560008201527f7200000000000000000000000000000000000000000000000000000000000000602082015250565b6000612207602183611bbe565b9150612212826121ab565b604082019050919050565b60006020820190508181036000830152612236816121fa565b9050919050565b7f4552433732313a20617070726f76652063616c6c6572206973206e6f7420746f60008201527f6b656e206f776e6572206f7220617070726f76656420666f7220616c6c000000602082015250565b6000612299603d83611bbe565b91506122a48261223d565b604082019050919050565b600060208201905081810360008301526122c88161228c565b9050919050565b7f4552433732313a2063616c6c6572206973206e6f7420746f6b656e206f776e6560008201527f72206f7220617070726f76656400000000000000000000000000000000000000602082015250565b600061232b602d83611bbe565b9150612336826122cf565b604082019050919050565b6000602082019050818103600083015261235a8161231e565b9050919050565b7f4552433732313a20696e76616c696420746f6b656e2049440000000000000000600082015250565b6000612397601883611bbe565b91506123a282612361565b602082019050919050565b600060208201905081810360008301526123c68161238a565b9050919050565b7f4552433732313a2061646472657373207a65726f206973206e6f74206120766160008201527f6c6964206f776e65720000000000000000000000000000000000000000000000602082015250565b6000612429602983611bbe565b9150612434826123cd565b604082019050919050565b600060208201905081810360008301526124588161241c565b9050919050565b600081905092915050565b600061247582611bb3565b61247f818561245f565b935061248f818560208601611bcf565b80840191505092915050565b60006124a7828561246a565b91506124b3828461246a565b91508190509392505050565b7f4e487b7100000000000000000000000000000000000000000000000000000000600052601160045260246000fd5b60006124f982611c65565b915061250483611c65565b925082820190508082111561251c5761251b6124bf565b5b92915050565b7f6163636f756e74206973206e6f74206f776e6572000000000000000000000000600082015250565b6000612558601483611bbe565b915061256382612522565b602082019050919050565b600060208201905081810360008301526125878161254b565b9050919050565b7f4552433732313a207472616e736665722066726f6d20696e636f72726563742060008201527f6f776e6572000000000000000000000000000000000000000000000000000000602082015250565b60006125ea602583611bbe565b91506125f58261258e565b604082019050919050565b60006020820190508181036000830152612619816125dd565b9050919050565b7f4552433732313a207472616e7366657220746f20746865207a65726f2061646460008201527f7265737300000000000000000000000000000000000000000000000000000000602082015250565b600061267c602483611bbe565b915061268782612620565b604082019050919050565b600060208201905081810360008301526126ab8161266f565b9050919050565b7f4552433732313a20617070726f766520746f2063616c6c657200000000000000600082015250565b60006126e8601983611bbe565b91506126f3826126b2565b602082019050919050565b60006020820190508181036000830152612717816126db565b9050919050565b7f4552433732313a207472616e7366657220746f206e6f6e20455243373231526560008201527f63656976657220696d706c656d656e7465720000000000000000000000000000602082015250565b600061277a603283611bbe565b91506127858261271e565b604082019050919050565b600060208201905081810360008301526127a98161276d565b9050919050565b7f45524337323155524953746f726167653a2055524920736574206f66206e6f6e60008201527f6578697374656e7420746f6b656e000000000000000000000000000000000000602082015250565b600061280c602e83611bbe565b9150612817826127b0565b604082019050919050565b6000602082019050818103600083015261283b816127ff565b9050919050565b60008190508160005260206000209050919050565b60006020601f8301049050919050565b600082821b905092915050565b6000600883026128a47fffffffffffffffffffffffffffffffffffffffffffffffffffffffffffffffff82612867565b6128ae8683612867565b95508019841693508086168417925050509392505050565b6000819050919050565b60006128eb6128e66128e184611c65565b6128c6565b611c65565b9050919050565b6000819050919050565b612905836128d0565b612919612911826128f2565b848454612874565b825550505050565b600090565b61292e612921565b6129398184846128fc565b505050565b5b8181101561295d57612952600082612926565b60018101905061293f565b5050565b601f8211156129a25761297381612842565b61297c84612857565b8101602085101561298b578190505b61299f61299785612857565b83018261293e565b50505b505050565b600082821c905092915050565b60006129c5600019846008026129a7565b1980831691505092915050565b60006129de83836129b4565b9150826002028217905092915050565b6129f782611bb3565b67ffffffffffffffff811115612a1057612a0f611eb0565b5b612a1a825461217a565b612a25828285612961565b600060209050601f831160018114612a585760008415612a46578287015190505b612a5085826129d2565b865550612ab8565b601f198416612a6686612842565b60005b82811015612a8e57848901518255600182019150602085019450602081019050612a69565b86831015612aab5784890151612aa7601f8916826129b4565b8355505b6001600288020188555050505b505050505050565b600081519050919050565b600082825260208201905092915050565b6000612ae782612ac0565b612af18185612acb565b9350612b01818560208601611bcf565b612b0a81611bf9565b840191505092915050565b6000608082019050612b2a6000830187611cfa565b612b376020830186611cfa565b612b446040830185611de3565b8181036060830152612b568184612adc565b905095945050505050565b600081519050612b7081611b24565b92915050565b600060208284031215612b8c57612b8b611aee565b5b6000612b9a84828501612b61565b91505092915050565b7f4e487b7100000000000000000000000000000000000000000000000000000000600052601260045260246000fd5b7f4552433732313a206d696e7420746f20746865207a65726f2061646472657373600082015250565b6000612c08602083611bbe565b9150612c1382612bd2565b602082019050919050565b60006020820190508181036000830152612c3781612bfb565b9050919050565b7f4552433732313a20746f6b656e20616c7265616479206d696e74656400000000600082015250565b6000612c74601c83611bbe565b9150612c7f82612c3e565b602082019050919050565b60006020820190508181036000830152612ca381612c67565b905091905056fea2646970667358221220644346c00b7b6b25fc9e72a3ff95b58344b7be8c71a2578b1649d0b12b0b3c1764736f6c63430008130033",
  "linkReferences": {},
  "deployedLinkReferences": {}
}